:020000040800F2
:10000000E0200020050100085D0C0008CD0100087B
:10001000590C0008FD0400086D14000800000000E1
:10002000000000000000000000000000E50E0008D5
:10003000750800080000000057010008D10F0008F3
:100040001F0100081F0100081F0100081F01000810
:100050001F0100081F0100081F0100081F01000800
:100060001F0100081F0100081F0100081F010008F0
:100070001F0100081F0100081F0100081F010008E0
:100080001F0100081F0100081F0100081F010008D0
:10009000ED1300081F0100081F0100081F010008E0
:1000A0001F0100081F0100081F0100081F010008B0
:1000B0001F0100081F010008000000001F010008C8
:1000C0001F01000800000000000000001F010008E0
:1000D00000000000CD1100081F0100080000000012
:1000E0001F0100081F0100081F010008DFF810D0E1
:1000F00000F0C2F900480047F3040008AFF30080A5
:10010000E02000200648804706480047FEE7FEE75B
:10011000FEE7FEE7FEE7FEE7FEE7FEE7FEE7FEE7B7
:10012000D90F0008ED000008EFF3108072B6704799
:1001300080F310887047324A1368012B04D04FF0C7
:10014000010313602F4A10602F4A11602F484FF0AF
:10015000805101607047EFF3108272B62848016841
:1001600091B14FF0000101602648016829B1EFF319
:10017000098121E9F00F00680160234909680968D5
:10018000B1E8F00F81F3098882F310884EF0040E75
:1001900070471D4908601B494FF00000086018496E
:1001A0004FF0010008601A481A49D0F8002041EACF
:1001B0000201016015484FF0805101601648006847
:1001C000006880F3088861B662B670471EF0040FBD
:1001D0000CBFEFF30880EFF3098020E9F00F40F83F
:1001E00004ED1EF0040F0CBF80F3088880F309882B
:1001F00000B502F0F3FF5DF804EB4EF0040E70471B
:1002000068010020600100206401002004ED00E08E
:1002100020ED00E00000FFFF08ED00E0F0B480EA10
:100220000102D40F4200B2EB410F02D2024608464F
:1002300011464A0042D0C30DDDB2C1F3C752AD1A18
:10024000202D35DAC1F3160141F4000204B1524207
:10025000C5F1200602FA06F12A411044B3EBD05F43
:1002600023D0C4B1012DA0EBC35009DCF0BC4FF08A
:10027000004202EAC352DBB200F5000000F0CEB843
:10028000400000F1807000EBC350A0F1807040EAA4
:10029000D170490009E0490841EAC071A0EBC350A0
:1002A00000F50000400800EBC350F0BC00F0ADB812
:1002B0006142012202EB4101001BF6E7F0BC7047EE
:1002C00081F00041AAE780F00040A7E780EA010240
:1002D00010B502F00043400022D04A001FD0010EAA
:1002E00001EB1261C0F35600C2F3560240F4000065
:1002F00042F40002A0FB022000047F39140400D065
:10030000401C50EA124001D44000491EC2B20C0603
:1003100004EBD010401C4008802A02D003E00020EB
:1003200010BD20F00100002900DA0020184310BDA4
:1003300030B480EA010202F0004530F0004221F0C2
:10034000004013D090B1C30DD40DC2F31601C0F319
:100350001600E41A41F4000140F400027D34914299
:1003600001D3641C00E04900002C02DA30BC0020FC
:1003700070474FF400000023914201D3891A0343D0
:1003800040084FEA4101F7D151B1914202D14FF0FB
:10039000004105E002D24FF0010101E06FF00101E0
:1003A00003EBC450284430BC00F02FB89623002241
:1003B000114600F033B820F00040C10DC0F3160024
:1003C00040F400007F2901DA00207047962903DC01
:1003D000C1F19601C840704796398840704730B5E2
:1003E0000B46014600202022012409E021FA02F5F3
:1003F0009D4205D303FA02F5491B04FA02F528448D
:10040000151EA2F10102F1DC30BD0029A8BF704722
:10041000401C490008BF20F00100704710B4B0FA3A
:1004200080FC00FA0CF050EA010404BF10BC7047D5
:1004300049B1CCF1200421FA04F411FA0CF118BFEF
:10044000012121430843A3EB0C01CB1D4FEA0061BE
:100450004FEA102042BF002010BC704700EBC35091
:1004600010440029A4BF10BC7047401C490008BFBD
:1004700020F0010010BC7047064C074D06E0E06814
:1004800040F0010394E8070098471034AC42F6D3DB
:10049000FFF730FE7C6B00089C6B000870B58C1871
:1004A00010F8015B15F0070301D110F8013B2A1188
:1004B00006D110F8012B03E010F8016B01F8016B75
:1004C0005B1EF9D12B0705D40023521E0DD401F871
:1004D000013BFAE710F8013BCB1A921C03E013F83A
:1004E000015B01F8015B521EF9D5A142D8D300206F
:1004F00070BD10B503F0ECFE002010BD00BFFEE79C
:1005000010B500F5D87303EB01131B6803F0040367
:100510001372137A53B900F5D87303EB01131B68F8
:1005200040F2FF7404EA5353136009E000F5D873F6
:1005300003EB01131B686FF0604404EAD3035360BC
:1005400000F5D87303EB01131B6803F00203537229
:1005500000F5D87303EB01135B6803F00F0393728C
:1005600000F5D87303EB01135B681B0AD37400F525
:10057000D87303EB01139B68D37200F5D87303EBB8
:1005800001139B681C0A147300F5D87303EB011365
:100590009B681C0C547300F5D87303EB01139B6824
:1005A0001B0E937300F5D87303EB0113DB68D37351
:1005B00000F5D87303EB0113DB681C0A147400F513
:1005C000D87303EB0113DB681C0C547400F5D8736B
:1005D00003EB0113DB681B0E937421B9C36843F06E
:1005E0002003C36003E0036943F02003036110BDEF
:1005F00070B505460C460021284600F017F8A1B258
:10060000284600F035F90121284600F00FF870BDAA
:1006100000F0805111B10349086001E002494860CF
:1006200070470000040402400000024021B102684B
:1006300042F00102026004E002684FF6FE731A40C5
:10064000026070472DE9F0438BB081460E46174695
:100650009846B8F1080F06D0B8F1100F06D0B8F1DF
:10066000200F0BD106E00025002407E04FF4807531
:10067000AC0003E04FF40075AC0000BF00BF48467B
:1006800000F01CF80121084600F02CFB01960097B1
:1006900000200390079406951020029000200590FA
:1006A000049008904FF44050099000200A90694649
:1006B000484600F0BFF80BB0BDE8F08301684FF684
:1006C000FE72114001600021016041608160C160E3
:1006D0004B49884208D14A490839496841F00F011D
:1006E000474A083A51608AE045491431884208D1A6
:1006F00043490839496841F0F001414A083A5160DC
:100700007DE03F492831884208D13D490839496890
:1007100041F470613A4A083A516070E038493C311E
:10072000884208D136490839496841F47041344A51
:10073000083A516063E032495031884208D130496B
:100740000839496841F470212D4A083A516056E051
:100750002B496431884208D129490839496841F454
:100760007001274A083A516049E0254978318842AA
:1007700008D123490839496841F07061204A083A94
:1007800051603CE01F49884206D1011F096841F0D1
:100790000F01021F116032E01A491431884208D15A
:1007A0001849091F096841F0F001164A121F11602B
:1007B00025E014492831884208D11249091F0968E7
:1007C00041F470610F4A121F116018E00D493C316D
:1007D000884208D10B49091F096841F47041094A50
:1007E000121F11600BE007495031884207D10549BB
:1007F000091F096841F47021024A121F11607047F5
:10080000080002400804024001460020002201F0D6
:10081000805313B1054B1A6801E0054B1A6802EAD0
:1008200001030BB1012000E00020704700040240EA
:100830000000024010B50022026847F6F0739A43A8
:100840000C6A8B6823430C6923434C6923438C69EE
:100850002343CC6923434C6A23438C6A23431A43C2
:100860000260CB6843600B6883604B68C36010BD57
:100870004160704770472DE9F0410246002500268F
:10088000002000230024002791F803C00CF00F057E
:1008900091F803C00CF0100CBCF1000F03D091F8DC
:1008A00002C04CEA050591F800C0BCF1000F31D040
:1008B000146800202BE04FF0010C0CFA00F3B1F8A3
:1008C00000C00CEA03069E4220D183004FF00F0CBB
:1008D0000CFA03F7BC4305FA03FC4CEA040491F854
:1008E00003C0BCF1280F06D14FF0010C0CFA00FC3C
:1008F000C2F814C00AE091F803C0BCF1480F05D15A
:100900004FF0010C0CFA00FCC2F810C0401C082883
:10091000D1D31460B1F800C0BCF1FF0F34DD5468CE
:1009200000202EE000F1080C4FF0010808FA0CF34B
:10093000B1F800C00CEA03069E4221D183004FF0BB
:100940000F0C0CFA03F7BC4305FA03FC4CEA040451
:1009500091F803C0BCF1280F05D100F1080C08FA8A
:100960000CF8C2F8148091F803C0BCF1480F07D10D
:1009700000F1080C4FF0010808FA0CF8C2F81080DA
:10098000401C0828CED35460BDE8F08108B5002093
:10099000104908604020ADF8000014208DF80300D5
:1009A00003208DF8020069460B48FFF764FF002022
:1009B0000A49C1F89801032002F048FC01200549CA
:1009C0000860052002F042FC00200449C1F89401AF
:1009D00008BD000094812142000C014000802142AA
:1009E00008B50121082000F08DF96020ADF8000065
:1009F00014208DF8030003208DF802006946054895
:100A0000FFF739FF0020044908600449C1F8980144
:100A100008BD0000000C0140948121420080214269
:100A200008B50020104908604020ADF800001420EF
:100A30008DF8030003208DF8020069460B48FFF78C
:100A40001AFF01200A49C1F89801032002F0FEFBB9
:100A5000012005490860052002F0F8FB0020044948
:100A6000C1F8940108BD000094812142000C0140AE
:100A700000802142F8B5054600264020ADF8000070
:100A800048208DF8030069461248FFF7F4FE002461
:100A900015E0002010490860052002F0D7FB012076
:100AA0000E49C1F894010C487C38006810B18020D0
:100AB00020410643032002F0C9FB601CC4B2082C8D
:100AC000E7DB15B9FFF762FF01E0FFF7A9FF30464A
:100AD000F8BD0000000C01409481214200802142B9
:100AE00008B54020ADF8000014208DF80300032065
:100AF0008DF8020069460B48FFF7BDFE01200A4948
:100B000008600A49C1F89401052002F09FFB00200B
:100B100005490860062002F099FB00200349C1F84E
:100B2000940108BD000C01409881214200802142BF
:100B300008B54020ADF8000014208DF80300032014
:100B40008DF8020069460B48FFF795FE00200A4920
:100B500008600A49C1F89801012007490860062089
:100B600002F074FB01200549C1F89801062002F04B
:100B70006DFB08BD000C01409481214200802142A0
:100B800038B50024012015490860032002F05EFBFF
:100B90004020ADF8000048208DF803006946104859
:100BA000FFF769FE01200F49C1F89401052002F00A
:100BB0004DFB09E0601C80B20446B0F5805F03DBAA
:100BC000FFF7B6FF012038BD0448803800680028D0
:100BD000F0D10249091F086000BFF4E79881214263
:100BE000000C01400080214238B505464020ADF898
:100BF000000014208DF8030003208DF802006946E0
:100C00001248FFF738FE00241DE0802020412840D4
:100C100018B101200E49086002E000200C4908606C
:100C2000032002F013FB01200949091F0860052079
:100C300002F00CFB00200749C1F89401052002F0E6
:100C400005FB601CC4B2082CDFDB38BD000C014082
:100C5000988121420080214200BFFEE770470000DA
:100C600070B5002100230F22C47804B3154C24680A
:100C700004F4E064C4F5E064210AC1F10403CA404D
:100C8000447804FA03F184781440214309010E4C9E
:100C90000678A155047804F01F050124AC400578BE
:100CA0006D11AD0005F1E025C5F8004109E00478BB
:100CB00004F01F050124AC40044D0678761145F878
:100CC000264070BD0CED00E000E400E080E100E0B3
:100CD00002490143024A1160704700000000FA0512
:100CE0000CED00E029B1064A52690243044B5A61F7
:100CF00004E0034A52698243014B5A617047000085
:100D00000010024029B1064A92690243044B9A61DD
:100D100004E0034A92698243014B9A6170470000E4
:100D20000010024030B500210022002400232D4D88
:100D30006D6805F00C0121B1042905D0082923D1E3
:100D400005E0294D056022E0274D05601FE0254D97
:100D50006D6805F47012234D6D6805F4803402252A
:100D600005EB92421CB9214D554305600BE01D4D2A
:100D70006D6805F400351DB11C4D5543056002E05A
:100D8000194D5543056002E0174D056000BF00BFD7
:100D9000144D6D6805F0F0010909154D6B5C05688F
:100DA000DD4045600F4D6D6805F4E061090A104DA6
:100DB0006B5C4568DD4085600A4D6D6805F46051E7
:100DC000C90A0B4D6B5C4568DD40C560054D6D681B
:100DD00005F44041890B074D6B5CC568B5FBF3F525
:100DE000056130BD0010024000127A0000093D008C
:100DF000000000201000002070B5054600260824E1
:100E000027E0002016490860052002F01FFA601E46
:100E1000012101FA00F0284020B101201049091FEA
:100E2000086003E000200E49091F0860052002F059
:100E30000DFA0B4888380068611E88403043C6B2FE
:100E400001200849C1F8B001052002F0FFF9601E39
:100E5000C4B2002CD5DC002001490860304670BDCA
:100E6000B08121420080214221B1028842F040023B
:100E7000028004E002884FF6BF731A400280704778
:100E80001AB183880B43838002E083888B4383807D
:100E900070470246002013890B400BB1012000E08F
:100EA000002070478181704710B50022028802F44B
:100EB00041520B884C8823438C882343CC8823439E
:100EC0000C8923434C8923438C892343CC892343B6
:100ED0001A430280838B4FF2FF74234083830B8A73
:100EE000038210BD704710B500F002F810BD00007D
:100EF0000CB50020019000903348006840F4803029
:100F00003149086000BF3048006800F400300090AC
:100F10000198401C0190009818B90198B0F5A06F95
:100F2000F1D12948006800F4003010B10120009090
:100F300001E0002000900098012843D12348006878
:100F400040F01000214908600846006820F00300C6
:100F500008600846006840F0020008601A484068CF
:100F6000194948600846406848600846406840F4AF
:100F7000806048600846406820F47C10486008465D
:100F8000406840F4E81048600846006840F080700F
:100F9000086000BF0C48006800F000700028F9D01D
:100FA0000948406820F00300074948600846406847
:100FB00040F00200486000BF0348406800F00C00A9
:100FC0000828F9D10CBD00000010024000200240AA
:100FD00010B502F0D6FB10BD10B51348006840F004
:100FE00001001149086008464068104908400E4950
:100FF0004860084600680E4908400B4908600846EA
:10100000006820F4802008600846406820F4FE0054
:1010100048604FF41F008860FFF765FF4FF00060E5
:101020000449086010BD0000001002400000FFF8F5
:10103000FFFFF6FE08ED00E021B1028842F0010258
:10104000028004E002884FF6FE731A400280704767
:1010500031B1B0F8442042F40042A0F8442005E049
:10106000B0F84420C2F30E02A0F8442070470000FC
:1010700070B5002400220023058C4FF6FE76354023
:101080000584028C8388048B4FF68F752C40B51E27
:101090002C400D882C43751E2A400D892A434D880B
:1010A0002A43144DA8420BD0134DA84208D0134D2B
:1010B000A84205D0124DA84202D0124DA84213D129
:1010C0004FF6F7752A404D892A434FF6FB752A40A3
:1010D0008D882A434FF6FF652B404FF6FF552B4076
:1010E0008D892B43CD892B4383800483CD888586CE
:1010F000028470BD002C01400034014000400140DA
:1011000000440140004801400A460021018B4FF68F
:10111000F7731940114301837047818570478186B9
:101120007047818470470000002202881D4B98425E
:101130000ED01D4B98420BD0B0F1804F08D01B4B06
:10114000984205D01A4B984202D01A4B984204D1CB
:101150004FF68F731A404B881A43174B984207D0AB
:10116000164B984204D04FF6FF431A40CB881A43DF
:1011700002808B8883850B8803850A4B98420BD0AD
:10118000094B984208D00E4B984205D00D4B98421F
:1011900002D00D4B984201D10B7A03860123838242
:1011A00070470000002C0140003401400004004062
:1011B00000080040000C00400010004000140040F7
:1011C00000400140004401400048014010B540F299
:1011D0002551134800F045F800B312480088FF2855
:1011E00003DD0F4800F0F8F818E00D4800F0F4F8BF
:1011F0000D490E4A127888540C480078FF2805DA09
:101200000A480078401C0949087002E0002007499C
:10121000087004480088401C0249088010BD000086
:1012200000380140620000202C03002061000020F3
:1012300021B1828942F40052828104E082894DF614
:10124000FF731A408281704702460020B1F5007F8B
:1012500000D100BF13880B400BB1012000E000203B
:10126000704770B50246002400230025002040F698
:101270006A16B14200D100BFC1F3421501F01F034D
:10128000012606FA03F3012D02D19689334006E0C8
:10129000022D02D1168A334001E0968A33400C12A7
:1012A000012606FA04F41688344013B10CB101206B
:1012B00000E0002070BDF0B50346002400260025A4
:1012C000002040F66A17B94200D100BF1846C1F3AA
:1012D000421401F01F06012707FA06F5012C01D17F
:1012E0000C3004E0022C01D1103000E014301AB1AF
:1012F00007682F43076002E00768AF430760F0BD4F
:101300002DE9F04786B005460E460024A24600BFF0
:10131000A1460027B08900B100BF2F462C8A4CF6A9
:10132000FF700440F08804432C82AC894EF6F31021
:101330000440B08831890843718908430443AC8173
:10134000AC8A4FF6FF400440B0890443AC8201A848
:10135000FFF7E8FC1F48874202D1DDF810A001E04A
:10136000DDF80CA0A88900F4004040B10AEBCA00E7
:1013700000EB0A1031684900B0FBF1F807E00AEB16
:10138000CA0000EB0A1031688900B0FBF1F8642054
:10139000B8FBF0F004012009642101FB1089A88941
:1013A00000F4004040B1322000EBC900B0FBF1F086
:1013B00000F00700044308E0322000EB091064212C
:1013C000B0FBF1F000F00F0004432C8106B0BDE843
:1013D000F08700000038014001468888C0F308000B
:1013E0007047C1F3080282807047000010B586B0D4
:1013F00001AA00211448FFF783F86FF060410298BA
:10140000884207D19DF80C00042803D19DF80E00F6
:10141000082803D00DA000F02BF812E000240CE007
:101420000DF10F00015D0F4802780078401C0D4B54
:1014300018700D488154601CC4B29DF80E00A04283
:10144000EEDC06B010BD00000064004063616E2059
:1014500072656365697665206661696C7572652180
:101460000D0A000031000020AC01002000BFFEE7A3
:101470000FB4054B10B503A9044A029800F03EF8DA
:1014800010BC5DF814FB00001D1D0008A801002021
:10149000014609B900207047C8B220B1C8B20E4A4F
:1014A000105C401CF7E701F47F4028B10A48C1F303
:1014B0000722805C0930EEE701F47F0028B106487E
:1014C000C1F30742805C1130E5E7034800EB11608F
:1014D00000781930DFE70000306A000802E008C831
:1014E000121F08C1002AFAD170477047002001E09E
:1014F00001C1121F002AFBD1704700002DE9FF4FE8
:1015000089B09B460446002506E025280BD05A46A4
:101510000B999047641C6D1C20780028F5D10DB004
:101520002846BDE8F08F0027B8460122474900E071
:10153000074314F8013F203B02FA03F00842F7D1B9
:1015400020782E2819D114F8010F47F004072A2813
:101550000ED06FF02F022078A0F1300109290CD8AD
:1015600008EB880102EB410100EB0108641CF2E783
:101570000A98641C50F8048B0A9020780028CED07A
:10158000642808D0692806D075281ED05A460B99C1
:1015900090476D1C58E00A994FF00A0901C90A9159
:1015A000002802DA40422D2102E0390504D52B2122
:1015B0008DF82010012103E0F90704D02021F7E77E
:1015C0008A4608AE0DE00021FAE70A994FF00A09B1
:1015D00001C90A91F7E74946FEF701FF303106F8E5
:1015E000011D0028F7D1ADEB060000F120097807B6
:1015F00001D44FF00108C84502DDA8EB090000E066
:1016000000208046002706E008A85A46C05D0B99D6
:1016100090476D1C7F1C5745F6DB04E030205A468E
:101620000B9990476D1CB8F10001A8F10108F5DC99
:1016300005E016F8010B5A460B9990476D1CB9F15D
:101640000001A9F10109F4DC641C65E70928010027
:101650002DE9FC5F04468B4615461E46DDE90C9AD3
:10166000DDE90E7804F114004060006000BF1C3416
:101670006560A660C4F80C90C4F810A02321D4E9DA
:10168000030201F097FFD4E9033C63441A1F144B93
:10169000D4E9010101F0B4FD2060A776677600204F
:1016A000E061C4F82880C4F82C8060612076E06591
:1016B00020661C3C009023460A4A2146019004F112
:1016C0004C0002F041FD00BF0748006818B12046F9
:1016D00005490968884700BF0020BDE8FC9F00005D
:1016E000313C0008C13E0008480100202DE9F047C8
:1016F00004460E4617469846DDF8209084F8099077
:10170000607A20F001006072E66127620020A0622A
:10171000C4F82480002506E004F1140101EBC500A3
:1017200001F039FE6D1C012DF6DBBDE8F08770B5C8
:101730000546002406E005F1140101EBC40001F0A8
:101740006BFE641C012CF6DB70BD70B50446FEF721
:10175000EBFC0546A06F10B12046A16F88472846D4
:10176000FEF7E6FC70BD10B5FFF73AF900F01AFB82
:1017700000F072FA0021084600F05EF84FF41650AF
:1017800002F07CFF00F004F800F054FC10BD0000F3
:1017900008B50F20ADF8000004208DF8030069465D
:1017A0000448FFF768F800200349087003490870EF
:1017B00008BD0000000801401E0000201D000020A0
:1017C00010B5044644B3174801880088401C154AE8
:1017D00010801548405C15490870104600880D219E
:1017E000B0FBF1F201FB12000E49088010480F4ACD
:1017F000127830F812100F48FFF78FFC0C480B4A94
:10180000127830F8120081110A48FFF788FC002195
:101810000848FFF786FC03E000210648FFF77FFC3D
:1018200010BD00002E00002020000020300000200D
:10183000304A0008002C014030B589B005460C46FE
:10184000012140F60800FFF75DFA4FF40050ADF8B3
:10185000200018208DF8230003208DF8220008A90D
:101860001948FFF708F80520ADF814000020ADF87E
:101870001600ADF818508DF81C00ADF81A0005A937
:101880001248FFF751FC6020ADF804000420ADF8C9
:1018900008000020ADF80600ADF80A40ADF80E00D3
:1018A000ADF8120001A90948FFF7E2FB082107483B
:1018B000FFF72AFC01210548FFF7BEFB0121034881
:1018C000FFF7C6FB09B030BD000C0140002C014001
:1018D0001CB504463B4890F9000010B1012855D1D1
:1018E0004AE048F21F403423C822142100902820E7
:1018F00000F002FB48F21F405423EA2234210090FA
:101900005A2000F0F9FA48F21F406C23CA225A21EB
:1019100000900A2000F0F0FA48F21F403423D2224F
:10192000822100900A2000F0E7FA48F21F40342399
:10193000D222AA2100900A2000F0DEFA48F21F40CD
:1019400034233A22D22100900A2000F0D5FA48F23E
:101950001F404FF485734222FA2100900A2000F0C4
:10196000CBFA48F21F404FF48573BA22FA21009057
:101970006A2000F0C1FA22E048F21F408923A22227
:10198000782100900A2000F0B7FA18E001A800F0D2
:10199000BBF99DF80400302803D100200A490870E3
:1019A00002E001200849087048F21F404FF48C7390
:1019B000F02200210090084600F09EFA00BF00BF10
:1019C0001CBD00004C0000205A00002030B502462B
:1019D0000C464FF0FF3110E012F8010B414000239C
:1019E00009E001F0010018B1074880EA510100E068
:1019F0004908581CC3B2082BF3DB201EA4F10105D3
:101A0000ACB2E9D1C84330BD2083B8ED1CB5044663
:101A1000012147A001F028FA4749086008460068FC
:101A200010B946A0FFF724FD01214CA001F01CFADB
:101A30004C4908600846006810B94BA0FFF718FD34
:101A400014201C214FF400730022CDE900104D49F1
:101A50004DA002F098F84E4908600846006820B191
:101A60000846006802F0E8F902E04AA0FFF700FD2E
:101A700014201E214FF480630022CDE900104A4952
:101A80004AA002F080F84A4908600846006820B180
:101A90000846006802F0D0F902E046A0FFF7E8FC33
:101AA00014201D214FF480730022CDE90010464917
:101AB00046A002F068F8474908600846006820B16F
:101AC0000846006802F0B8F902E043A0FFF7D0FC36
:101AD00006200A2300224649009046A002F005FB9A
:101AE000464908600846006820B10846006802F0D0
:101AF00043FB02E042A0FFF7BBFC06206423002268
:101B00004749009047A002F0F0FA484908600846AB
:101B1000006820B10846006802F02EFB02E044A0F5
:101B2000FFF7A6FC4B48006802F056F81CBD000009
:101B30006D6576656E7400008C0100206D656173C3
:101B400075726564206576656E74206861642066D0
:101B500061696C65642E0D0A00000000756576658C
:101B60006E740000900100207573617274206576B8
:101B7000656E7420686164206661696C65642E0D11
:101B80000A000000F14900087573617274000000DA
:101B9000740100207573617274206861642066614D
:101BA000696C65642E0D0A005544000875690000D3
:101BB00078010020756920686164206661696C6540
:101BC000642E0D0A00000000B12B00086D656173E2
:101BD000757265007C0100206D656173757265200A
:101BE000686164206661696C65642E0D0A000000FE
:101BF0001944000874696D6572300000800100208E
:101C000074696D65725F626173655F31306D7320F9
:101C1000686164206661696C65642E0D0A000000CD
:101C20004144000874696D6572310000880100202C
:101C300074696D65725F756172745F726563656901
:101C400076655F317320686164206661696C6564E4
:101C50002E0D0A007001002008B501210820FFF7B1
:101C600051F84FF4B040ADF8000010208DF803009B
:101C700003208DF8020069460C48FEF7FCFD4FF486
:101C80008060ADF8000004208DF803006946074825
:101C9000FEF7F1FD0020064908600649C1F8AC01D5
:101CA000012003490831086008BD0000000C014014
:101CB000B08121420080214270B504460D4616468F
:101CC0000020104908600320FFF796F8C4F307408E
:101CD000FFF792F8C4F30720FFF78EF8E0B2FFF7A2
:101CE0008BF804E0FF20FFF787F805F8010B301EA2
:101CF000A6F101018EB2F5D12870012001490860DA
:101D000070BD0000B881214210B504460122214671
:101D10004FF4FE00FFF7D0FF10BD000070B5044681
:101D20000D46E1B20548FFF75CFB00BF8021034888
:101D3000FFF78AFA0028F9D0204670BD003801402C
:101D40002DE9F04104460D4600F0E6FE00F0E6FF06
:101D50000F48006864214843000D20800D49096840
:101D6000C82201FB02F0FEF721FB80460A49FEF77C
:101D7000DFFA07460949FEF7A3FA06460849304646
:101D8000FEF7A4FA0746FEF716FB2880BDE8F081AF
:101D90001400002018000020F0FF7F490000484296
:101DA0000000C84203200749087001204870002045
:101DB00088700549088048808880C8800349087079
:101DC0007047000070000020740000207C0000209C
:101DD00000200349088003490870034908707047D0
:101DE0006200002061000020600000202DE9F04129
:101DF00007460C4615461E462A2000F021FE3846AE
:101E000000F030FE284600F02DFE2B2000F018FEDA
:101E100004F1140188B200F025FE06F1140188B225
:101E200000F020FE2C2000F00BFEBDE8F081000049
:101E300038B5044624B1012C0CD0022C27D11CE06B
:101E40000120144900900878134B0022022100F071
:101E5000DDFE1DE00F48407838B145200E4908707E
:101E60004E2048700020887006E044200A4908701F
:101E70004E204870002088700AE00120054900903B
:101E80008878054B0022022100F0C0FE00E000BF70
:101E900000BF38BD700000204F00002010B5044680
:101EA00014B1012C08D103E004A0FFF7E1FA03E02C
:101EB00009A0FFF7DDFA00BF00BF10BD5350492055
:101EC0007769727465732062797465732074696DC3
:101ED000656F7574210A000053504920726563696B
:101EE000657665732062797465732074696D656FBA
:101EF0007574210A000000002DE9F04780468946EC
:101F000014461D46A4EB0800A5EB090100FB01F6F1
:101F10004FF6FF70B6FBF0F0401CC7B2681E83B2EC
:101F2000601E82B249464046FFF760FF00212B4801
:101F3000FEF79AFF2948008840F40060274908808E
:101F400001212648FEF790FF002025490860102354
:101F5000224A0C3208A92348FEF774FB0122022111
:101F60001E48FEF78DFF24E0012F04D131461D48A5
:101F7000FEF73EFB07E04FF6FF711A48FEF738FB0D
:101F8000A6F57F46FF3E09E04FF40070FEF73CFCEB
:101F900020B14FF40070FEF73BFB00E0F4E700BF18
:101FA00000BF0E48008900F080000028F9D1781E9B
:101FB000C7B2002FD8D10120094908600021074885
:101FC000FEF752FF0548008820F4006003490880AE
:101FD00001210248FEF748FFBDE8F08700300140CC
:101FE000900121423000024008B501210820FEF78F
:101FF00089FE4FF46070ADF8000010208DF80300EA
:1020000003208DF8020069460748FEF734FC0020E3
:102010000649086001200649C1F8A00100200349D3
:102020000831086008BD0000000C01409C8121427D
:102030000080214210B5FFF7D7FF00F099FC002087
:1020400062490860642001F09BFE01206049C1F8EC
:102050009C01642001F094FE01205C490831086075
:10206000642001F08DFE112000F0EAFC782001F0E0
:1020700087FE362000F0E4FC002000F0CFFC3A2080
:1020800000F0DEFC052000F0C9FCB22000F0D8FC16
:102090000C2000F0C3FC0C2000F0C0FC002000F07D
:1020A000BDFC332000F0BAFC332000F0B7FCB720B1
:1020B00000F0C6FC352000F0B1FCBB2000F0C0FCF5
:1020C000322000F0ABFCC22000F0BAFC012000F08E
:1020D000A5FCC32000F0B4FC152000F09FFCC42038
:1020E00000F0AEFC202000F099FCC62000F0A8FC17
:1020F0000F2000F093FCD02000F0A2FCA42000F000
:102100008DFCA12000F08AFCE02000F099FCD0209A
:1021100000F084FC082000F081FC0E2000F07EFC22
:10212000092000F07BFC092000F078FC052000F07D
:1021300075FC312000F072FC332000F06FFC482069
:1021400000F06CFC172000F069FC142000F066FC25
:10215000152000F063FC312000F060FC342000F01A
:102160005DFCE12000F06CFCD02000F057FC082062
:1021700000F054FC0E2000F051FC092000F04EFC51
:10218000092000F04BFC152000F048FC312000F045
:1021900045FC332000F042FC482000F03FFC1720B3
:1021A00000F03CFC142000F039FC152000F036FC57
:1021B000312000F033FC342000F030FC212000F00E
:1021C0003FFC292000F03CFC10BD00009C81214216
:1021D0000080214270B504460D46012D30D124B156
:1021E000012C0ED0022C29D119E02F480078401C78
:1021F0002D490870084600780A2801DD0320087080
:102200001DE029484078401C27494870487800EB79
:10221000D0714910A0EB4101234A51700FE02248D0
:102220008078401C204988708878C11700EB917134
:102230008910A0EB81011C4A917000E000BF2EE0E4
:1022400024B1012C0FD0022C27D119E016480078B8
:10225000032802DC0B201449087013480078401E44
:10226000114908701AE010484078002802DC02206A
:102270000D4948700C484078401E0B4948700DE0ED
:1022800009488078002802DC042007498870064845
:102290008078401E0449887000E000BF00BF2046DF
:1022A000FFF7C6FD70BD0000700000202DE9FC5F47
:1022B00081468A4617469B460D9D284605EBD07100
:1022C000C1F347042046E21704EB5272D2102146B4
:1022D000E31704EB5373DB10A4EBC3030BB101232F
:1022E00000E000231A446A43D2B20192A7F1200011
:1022F000C7B20AEB0500401E83B209EB0400401E82
:1023000082B251464846FFF771FD00262CE0102DA1
:1023100002D0202D0CD105E0164800EB0710805D9F
:10232000009007E0144800EB8710805D009001E00A
:10233000BDE8FC9F00BF4FF0000810E0012000FA4C
:1023400008F00099084018B1584600F08BFB02E0F5
:102350000C9800F087FB08F1010000F0FF08B8F1CD
:10236000080FEBDB701CC6B201988642CFDB00BFC2
:10237000DEE70000784A0008685000082DE9FF4FAA
:1023800083B082468B461746119D0020019000269F
:102390000090002467E0204604EBD0714910A4EBC4
:1023A0004101203106EB0612324B03EB4202515C35
:1023B0003A57D14203D10098401CC0B20090601C33
:1023C000C4B2204604EBD0714910A4EB41010029AE
:1023D00049D1009802283ED10BEB0500401E83B284
:1023E0000AEB0500401E82B259465046FFF7FEFC3C
:1023F0004FF0000829E0102D08D106EB06101D490A
:1024000001EB400010F80800029002E007B0BDE8C0
:10241000F08F00BF4FF0000910E0012000FA09F032
:102420000299084018B1069800F01CFB02E01098D1
:1024300000F018FB09F1010000F0FF09B9F1080FE5
:10244000EBDB08F1010000F0FF08B8EB450FD2DB31
:102450000194002604E0701CC6B20E2E00DD05E0DB
:10246000019C00200090385D002894D100BF00BF7F
:10247000CCE700002868000810B586B0044675480F
:1024800090F90000844272D0202045F258414FF666
:10249000E07371A2CDE900101421282000F0F4F9B6
:1024A000202045F258414FF6E0736EA2CDE90010AE
:1024B00034215A2000F0E8F910204FF4FC611F236A
:1024C0006BA2CDE900105A210A2000F0DDF910209E
:1024D0004FF4FC611F236AA2CDE9001082210A207B
:1024E00000F0D2F910204FF4FC611F2368A2CDE95F
:1024F0000010AA210A2000F0C7F910204FF4FC6157
:102500001F2367A2CDE90010D2210A2000F0BCF9F8
:1025100010204FF4FC611F2363A2CDE90010FA21C3
:102520000A2000F0B1F910204FF4FC611F2325228E
:10253000CDE90010FA213A20FFF7B8FE10204FF441
:10254000FC611F235AA2CDE90010FA216A2000F095
:102550009BF910204FF4FC611F234322CDE90010AA
:10256000FA21B220FFF7A2FE60B23A490870524841
:10257000007800283FD0012050490090488803ABE4
:102580000222114600F042FB10204FF4FC611F2391
:1025900003AACDE900105A217A2000F075F9012034
:1025A00046490090088803AB0222114600F02EFB3A
:1025B00010204FF4FC611F2303AACDE900108221F3
:1025C000084600F061F901203C490090B1F906008D
:1025D00003AB0022042100F019FB10204FF4FC6132
:1025E0001F2303AACDE90010AA21822000F04CF994
:1025F000002031490870012003AB00220221009025
:102600002F48008800F002FB10204FF4FC611F23CC
:1026100003AACDE90010FA212A2000F035F90120A3
:1026200003AB0222114600902648008800F0EEFA23
:1026300010204FF4FC611F2303AACDE90010FA21FA
:102640008A2000F021F901211F48006800F0AEFC4B
:1026500006B010BD4C0000204275636B20506F77B0
:10266000657200002D2D4D722E46697665000000C2
:10267000496E70757420566F6C746167653A00001E
:102680004F757470757420566F6C746167653A008D
:102690004F75747075742043757272656E743A006C
:1026A000506F7765723A000048756D3A000000007F
:1026B00054656D3A000000007C000020740000208A
:1026C00054000020560000208C010020F8B505467B
:1026D0000C4616461F4615480078A04210D01348F5
:1026E0000470002D02DCFF201149087048F21F40E1
:1026F0004FF48C73F022002100900846FFF7FCFB9A
:102700000B4890F90000854202D02046FFF7E0F820
:102710002CB13A463146284600F00EF804E0054850
:1027200050F8251028468847F8BD00005B000020BF
:102730004C000020286A00087CB504460D46164669
:102740004C4890F90000844236D02046FFF770FBD9
:1027500020204FF4FC611F2347A2CDE90010362151
:10276000492000F091F820204FF4FC61CDE90010E1
:10277000424850F824201F233621692000F084F8B5
:1027800020204FF4FC61CDE900103C480C3050F89B
:1027900024201F23B421282000F076F820204FF4B5
:1027A000FC611F23364ACDE90010B421802000F0DF
:1027B0006BF860B22F49087032480078854213D018
:1027C0003048007801280FD02E48057020204FF4A3
:1027D000FC61CDE90010294850F824201F23362140
:1027E000692000F051F813E02648007885420FD0A8
:1027F0002448007860B12348057020204FF4FC6124
:102800001F231F4ACDE90010B421802000F03CF8BE
:10281000012D18D04EB148F21F405623892236218F
:1028200000906920FFF768FB23E020204FF4FC6153
:10283000CDE90010114850F824201F2336216920CB
:1028400000F022F815E04EB148F21F40D423A02238
:10285000B42100908020FFF74FFB0AE020204FF4C6
:10286000FC611F23064ACDE90010B421802000F04E
:102870000BF87CBD4C0000204944000034000020CF
:102880004F0000205C0000202DE9FE4F06468946DF
:1028900014469A46DDE90C8500208DF80A0027E0F1
:1028A00094F9000000280FDDCDE9008514F8012B14
:1028B000534649463046FFF7F9FC284605EBD071F0
:1028C00006EB61018EB213E0002705E014F8010B5E
:1028D00002A9C855781CC7B2022FF7DB534602AADB
:1028E00049463046CDE90085FFF748FD701986B2AC
:1028F00020780028D4D1BDE8FE8F00003EB5044604
:10290000144890F90000844222D010201F214FF477
:10291000FC6311A2CDE9001078210A20FFF7B4FF73
:10292000012002AB0246014600901048008800F0EA
:102930006DF910201F214FF4FC6302AACDE90010AD
:1029400078218A20FFF7A0FF60B20249087000BF1B
:102950003EBD00004C00002043757272656E74200D
:1029600056657273696F6E3A0000000058000020CF
:1029700000B587B001210803FEF7C4F90121042046
:10298000FEF7C0F901210846FEF7BCF91020ADF8AA
:1029900004008DF8070003208DF8060001A91C48EB
:1029A000FDF769FF01201B490860A020ADF8040075
:1029B00018208DF8070003208DF8060001A914489F
:1029C000FDF759FF4FF44040ADF808004FF4827016
:1029D000ADF80A000020ADF80C00ADF80E00ADF81F
:1029E00010004FF40070ADF812000020ADF8140094
:1029F000ADF816000720ADF8180002A90648FEF74A
:102A000053FA01210448FEF72FFA07B000BD000079
:102A100000080140900121420030014010B50446F9
:102A2000002005490860204601F0A6FC012003496A
:102A3000C1F8900110BD0000900121420000214228
:102A400010B504460020054908602046FFF7E6FF60
:102A500001200349C1F8A00110BD0000A08121425E
:102A60000080214210B504462012FFF7D7FFE0B2E4
:102A7000FFF7D4FF10BD00001CB5FEF774FE10A0D8
:102A8000FEF7F6FC13A0FEF7F3FC142000214FF430
:102A900080730A46CDE90010124913A001F073F8C3
:102AA000134908600846006820B10846006801F034
:102AB000C3F902E00FA0FEF7DBFC00201CBD000004
:102AC0005365636F6E64204150502C53746172746F
:102AD000210D0A00616C6C20696E697465642E0DAD
:102AE0000A0000000D1A0008637265617465000039
:102AF00070010020637265617465206861642066FE
:102B000061696C65642E000010B5044600F08EF912
:102B1000FFF7B2FF10BD000010B5FDF7E1FF702018
:102B2000FEF762F8FEF72CF8044614B116A0FEF783
:102B30009FFCAC20FEF758F8FEF722F8044614B1CB
:102B400011A0FEF795FC3320FEF74EF8FEF718F8BB
:102B5000044614B10CA0FEF78BFC0020FEF744F8ED
:102B6000FEF70EF8044614B107A0FEF781FCFDF74E
:102B7000DFFF00200B4908600B4908600B49087013
:102B8000642001F0FDF810BD49494320636F6D7565
:102B90006E69636174696F6E206661696C65642E2D
:102BA0000D0A000014000020180000201C00002066
:102BB0001CB51BE001A84FF0FF3306220121009055
:102BC0000B48006800F064F9044664B9019800F00D
:102BD000010058B107490848FFF7B2F84FF4FA70FE
:102BE00001F0CEF802E005A0FEF742FCE2E70000AB
:102BF0008C0100205600002054000020726563768E
:102C0000206661696C65642E0D0A0000F0B5059CB4
:102C10000026002A02DD8F187F1C00E08F18FDB20D
:102C2000002803DA2D2703F8017B40420CB12F4620
:102C300000E06F1E3B441E4614B1002703F80179E3
:102C4000E0B118E0A6EB030C0CB14F1C00E00F46FE
:102C5000BC4505D1002A03DD2E2703F801790AE0DF
:102C60000A2790FBF7FC07FB1C07303703F80179B4
:102C70000A2790FBF7F00028E4D101E030271F700D
:102C80003CB102E0302703F80179F71AAF42F9DDD1
:102C900006E002E0302703F80179F71AAF42F9DBCA
:102CA000F0BD000030B51A4C4368246819198842F9
:102CB00015D04B889BB9174B1B6899420FD0164B08
:102CC0001B688B4201D1144B18604B684360104B5A
:102CD0001B68C31A0E4D4C682D682C44A3600C4C25
:102CE000836824681A19824211D053887BB90A4B31
:102CF0001B68834201D1084B1A6043685360044B40
:102D00001B68D31A024D44682D682C44A36030BD63
:102D1000980000209C000020A000002070B5FDF766
:102D2000DFFE7120FDF760FFFDF72AFF054615B1B4
:102D300021A0FEF79DFB0020FDF79CFE0020FDF783
:102D400099FE2449096841EA0030224908600020C0
:102D5000FDF790FE1F49096841EA00101D4908600F
:102D60000020FDF787FE04461A48006840EA241058
:102D70001849086004F00F001749096841EA00404B
:102D8000154908600020FDF775FE1349096841EAFE
:102D90000020114908600020FDF76CFE0E4909680B
:102DA00008430D4908600120FDF764FE0B490978CE
:102DB00008430A49087070BD49494320636F6D7527
:102DC0006E69636174696F6E206661696C65642EFB
:102DD0000D0A000014000020180000201C00002034
:102DE0001CB514200A214FF480730022CDE9001095
:102DF000044905A000F0C7FE0446204601F01CF877
:102E00001CBD0000092B00086D61696E0000000008
:102E100010B5044C02E020688047241D024884421B
:102E2000F9D310BD706B0008746B000810B5044C2A
:102E300002E020688047241D02488442F9D310BD77
:102E4000746B0008786B000810B5FDF76DF9044647
:102E500004480088401C00B2024908802046FDF763
:102E600067F910BD2801002070B505460E462946B9
:102E7000042000F0C5FB04460CB9204670BD667204
:102E8000204600F07AFA0020E0612046F6E70000D4
:102E90002DE9FF4705460E461746DDF8308026B976
:102EA0004FF0FF3004B0BDE8F0874FF0FF3900F07D
:102EB0009BFF04460020206300BF3A48006818B119
:102EC000284638490968884700BFFDF72DF9824632
:102ED00007F0010030B1E8693040B0420AD14FF04C
:102EE000000907E007F0020020B1E869304008B1AE
:102EF0004FF00009B9F1000F12D1B8F1000F03D063
:102F0000E8693040C8F80000E8693040E06384F8C0
:102F1000407007F00400B0B3E869B043E86132E004
:102F2000039840B96FF0010020635046FDF700F9A7
:102F30006FF00100B6E7E66384F840706A7A2146D4
:102F400005F1140000F0E2F90398002809DD03AA56
:102F5000002104F14C0001F097F804F14C0001F05D
:102F60000BF95046FDF7E4F800F014FC206B08B1B3
:102F7000206B97E7FDF7D8F88246B8F1000F02D032
:102F8000E06BC8F800005046FDF7D2F800BF0648D5
:102F9000006818B1284604490968884700BF206BBB
:102FA00080E70000180100201C0100202DE9F047F7
:102FB00004460F461FB94FF0FF30BDE8F0874FF0D1
:102FC0000008FDF7B1F88246E0693843E06100BFD0
:102FD0002B48006818B1204629490968884700BF76
:102FE00004F1140000F0F6F900283FD1666939E0D9
:102FF000A6F114054FF0FF3995F8400000F00100EC
:1030000040B1E86BE1690840E96B884218D14FF0A4
:10301000000915E095F8400000F0020050B1E86B9F
:10302000E169084060B1E86BE1690840E8634FF08E
:10303000000905E05046FDF77BF86FF00900BCE79A
:103040003668B9F1000F0DD195F8400000F004008A
:1030500018B1E069E96B8843E061284600F09AFE08
:103060004FF0010804F114008642C1D15046FDF72B
:103070005FF8B8F1010F01D100F08CFB00209CE754
:103080002001002010B5FDF74FF804460C480088D9
:10309000401E00B20A4908800846B0F90000002826
:1030A0000ADC002008802046FDF742F80548006849
:1030B00028B100F06FFB02E02046FDF739F810BDA3
:1030C000280100202C01002070B5054605B970BD0F
:1030D00000BF1A48006818B128461849096888478F
:1030E00000BF17480068854203D316480068854230
:1030F00000D3ECE7A5F10C044FF0FF31124800F0CB
:1031000031FC002060804FF4F55020800F480068AB
:10311000844201D20D480460094960680968611A57
:10312000401A0B490968081A094908602046FFF748
:10313000B9FD054800F0E2FB00BFC8E7940000209D
:10314000980000209C000020BC1B0020A000002054
:10315000A8000020004870472C0600200048704757
:103160002C1A002070B51A4800684FF47A72B0FB30
:10317000F2F1B1F1807F00D31DE021F07F40401ECD
:103180004FF0E022506150170F22002807DA130792
:103190001D0E104B00F00F04241F1D5503E01307F4
:1031A0001C0E0D4B1C5400BF00204FF0E02290611C
:1031B0000720106100BFFFF72BFEFFF7CFFF04468B
:1031C000FFF7C8FF0546214600F038FC70BD00003F
:1031D0009401002018ED00E000E400E070B5044622
:1031E000261D0648006838B120460449096888470A
:1031F000054605B970BD00BF00BFFEE76C010020A9
:10320000F0B504460D461646301D20F00700403844
:103210000146002203E00C4F41F82270521C102A94
:10322000F9D30D624FF0000CC1F824C0C1F828C0DA
:10323000C1F82CC0C1F830C04B638C634FF0807C68
:10324000C1F83CC0F0BD0000EFBEADDEF0B50346F6
:103250004FF0E026746903FB04F64FF47A77B6FB6F
:10326000F7F500224FF0E026B1690EE04FF0E026BE
:10327000B069884202D20E1A324402E0261A0E4485
:1032800032440146AA4200D300E0EFE700BFF0BDA0
:1032900010B5FCF749FF044608480078401C074970
:1032A000087000BF0648006810B1054800688047F4
:1032B00000BF2046FCF73CFF10BD00008C00002042
:1032C0008400002010B5FCF72FFF04460848007862
:1032D000401E0749087000BF0648006810B1054845
:1032E0000068804700BF2046FCF722FF10BD0000A9
:1032F0008C0000208800002070B504462068A0F1F2
:103300001405284600F046FD002070BD2DE9F0416F
:1033100005460C469046204600F0A4FDB8F1000F8B
:1033200003D0B8F1010F23D105E004F114012846C0
:1033300000F049F81DE02E680FE0A6F1140794F89C
:10334000350097F83510884206DA04F1140107F1C8
:10335000140000F038F802E03668AE42EDD100BF4C
:10336000AE4204D104F11401284600F02CF800E02C
:1033700000BF00BF0020BDE8F08110B5044604F195
:10338000140000F002F8002010BD4060006070479B
:1033900040600060704740600060704702685160A4
:1033A00002680A6001604860704702685160026804
:1033B0000A600160486070470268516002680A60F4
:1033C0000160486070474268116042684A6041602D
:1033D0000860704701460868884201D101207047A3
:1033E0000020FCE701460868884201D101207047AF
:1033F0000020FCE7D0E900215160D0E90012116003
:10340000406000607047D0E900215160D0E90012AF
:103410001160406000607047D0E900215160D0E940
:103420000012116040600060704700002DE9F0411B
:10343000054615B90020BDE8F081E81C20F0030521
:1034400054480068854201D90020F4E70C2D00D2D1
:103450000C254FF0FF31504800F084FA4F480068C7
:103460004F490968461A8AE04D4800688419608807
:1034700000287CD106F10C006168081AA8427AD3B2
:1034800006F10C006168091A05F11800814230D379
:1034900006F10C0000EB05084148006800EB080746
:1034A0004FF4F55038800020788060687860BE6006
:1034B000C4F80480012060803648796800680C30C8
:1034C000814205D03649786809680844C0F8088008
:1034D0003448016805F10C0008443249086032485C
:1034E00000680968884219D22E4800682E49086091
:1034F00014E0012060802A4960680968611A401A56
:10350000284909680844274908602748006809686D
:10351000884203D223480068234908604FF4F550DD
:1035200020801E480068844212D107E01B480068D2
:1035300040681B4909680844184908601748006832
:10354000408828B115480068184909688842EDD1BB
:10355000114800F0D3F900BF1548006828B129468A
:1035600004F10C00124A1268904700BF00E002E02C
:1035700004F10C005FE70A480068304446680548DB
:103580000068401BB0423FF66FAF034800F0B6F949
:10359000002050E7A4000020BC1B0020A000002059
:1035A00098000020A8000020AC0000209C00002013
:1035B00090000020F0B50C460546E6B2042A15D36B
:1035C00000F0030797B9014646EA062343EA03439E
:1035D00004E008C108C108C108C1103A102AF8D295
:1035E00001E008C1121F042AFBD20D4602E077B2A7
:1035F00005F8017B171EA2F10102F8D1F0BD000011
:103600002DE9F04106460F46304600F067F80546C2
:10361000E868FFF70BFF044614B90020BDE8F0810D
:1036200000212046EA68FFF7C5FF2672002060727D
:1036300008223946204600F0E6F900BF0A48006833
:1036400018B1204608490968884700BFFCF76CFD9F
:10365000804604F10C01281DFFF7A0FE4046FCF750
:1036600067FD2046DAE700001001002070B504462F
:1036700000BF0C48006818B120460A49096888470D
:1036800000BF00202072FCF74FFD054604F10C003E
:10369000FFF7B0FE2846FCF74BFD2046FFF714FD70
:1036A00070BD00001401002070B5044600BF0A4838
:1036B000006818B1204608490968884700BF002003
:1036C0002072FCF731FD054604F10C00FFF792FE75
:1036D0002846FCF72DFD70BD140100200246002194
:1036E0000AE0074800EB01100078904203D104483B
:1036F00000EB01107047491C0629F2DB0020F9E7B6
:10370000B00000202DE9F04704460D469046002603
:103710002846FFF7E3FF0746FFF796FB7E6802E0C7
:10372000A6F10C003668381D8642F9D1FFF7AAFCD5
:1037300045F08000207208224146204600F063F9DF
:1037400000BF0A48006818B1204608490968884740
:1037500000BFFCF7E9FC814604F10C01381DFFF7BE
:103760001DFE4846FCF7E4FCBDE8F0871001002090
:103770000146087A00F0800008B10120704700205F
:10378000FCE710B5FFF784FD00F0FEFBFFF79AFDA4
:1037900010BD00002DE9F041FCF7C6FC07461D48AE
:1037A000008888BB1C480068FDF772FE461E1B4857
:1037B00050F83600A0F1140419480068844222D061
:1037C00018490E7016480568046000BF1648006866
:1037D00020B121462846144A1268904700BF13487A
:1037E000007850B904F11C0105F11C00FCF7A3FCA2
:1037F0003846FCF79DFCBDE8F08104F11C0105F1A1
:103800001C00FCF798FC00BF3846FCF791FC00BF99
:10381000F1E700002801002024010020DC1B00202B
:103820002C010020300100203C0100208C000020F1
:1038300070B50446FCF778FC054614F8340F20F008
:103840000F0040F0010020706278343C0A4B03EB1B
:10385000C20004F114014268116042684A6041608C
:10386000086000BF0549A06B096808430349086068
:103870002846FCF75DFC70BDDC1B00202401002005
:1038800070B50446FCF750FC054604F11400D0E97D
:1038900000215160D0E9001211604060006000BF5B
:1038A00094F83510094A02EBC1000168814201D148
:1038B000012100E0002129B10548A16B006888437F
:1038C000034908602846FCF733FC70BDDC1B002070
:1038D000240100202DE9F04104460D4616461F46FE
:1038E0002A4602212046FFF70DFF2046FFF745FD3F
:1038F000A68367720020BDE8F081000070B5044621
:1039000000BF1748006818B1204615490968884764
:1039100000BF0025FCF708FC064604F11400FFF781
:1039200059FD28B904F11400FFF7E6FC01250EE06B
:10393000A08B4FF6FF71884203DAA08B401CA08356
:1039400005E03046FCF7F4FB6FF0020070BD304636
:10395000FCF7EEFB012D01D1FFF71CFF0020F5E77E
:103960002001002073B5054600BF2448006818B147
:10397000284622490968884700BFFCF7D5FB064660
:10398000A88B002806DDA88B401EA8833046FCF7D4
:10399000CFFB28E0019828B93046FCF7C9FB6FF04F
:1039A00001007CBD00F020FA0446002020636A7A02
:1039B000214605F11400FFF7A9FC0198002809DD54
:1039C00001AA002104F14C0000F05EFB04F14C0060
:1039D00000F0D2FB3046FCF7ABFBFFF7DBFE206BC1
:1039E00008B1206BDDE700BF0548006818B1284624
:1039F00003490968884700BF0020D2E7180100206A
:103A00001C010020704770B50346A2B118460C4651
:103A100000BF14F9016B00F8016B3EB902E000250C
:103A200000F8015B551E2A1EF9D102E0551E2A1E20
:103A3000EFD100BF00BF184670BD00002DE9F04176
:103A400007468846F81C20F0030528F00306182EC8
:103A500008D9A6F11800A84204D3701B18381C49D5
:103A6000086001E0BDE8F0811A48056004684FF481
:103A7000F5502080164800680C3060600020A0607F
:103A800060801449606809680844134908604FF46D
:103A9000F5500968088001200F49096848800C48E2
:103AA00000680C300C4909684860094800680C300F
:103AB0000949096888600023012208A10948FFF725
:103AC00009FF044800680849086000BFCAE7000011
:103AD000A4000020980000209C0000206865617010
:103AE00000000000BC1B0020A000002010B500203A
:103AF0000B490880002405E00A4901EBC400FFF7E8
:103B000047FC641C202CF7DB1F20074908700020AD
:103B100006490860064908600648FFF739FC10BDF1
:103B200028010020DC1B0020300100202C01002097
:103B3000240100203401002070B508480068FDF71A
:103B4000A7FC451E064850F83500A0F114040548AE
:103B5000046004F11C00FCF71CFB70BD2401002074
:103B6000DC1B00202C01002010B5002405E00449D6
:103B700001EBC400FFF70FFC641C002CF7D010BD54
:103B80004C01002070472DE9FF5F06460F46904626
:103B90001D46DDE90EAB31460120FFF731FD8146C0
:103BA000B9F1000F03D1002004B0BDE8F09F284612
:103BB000FFF73CFC044624B94846FFF757FD0020B8
:103BC000F2E743463A46314648468DE8300CFDF769
:103BD0003FFD4846E8E7000070B5044694F834001D
:103BE00000F00F00042801D1002070BD94F83400CB
:103BF00000F00F0010B12046FFF742FE2046FDF70F
:103C0000A4FD04F14C0000F08BFAFCF78DFA054698
:103C1000042084F8340004F114010448FFF7C5FBC4
:103C20002846FCF785FA0020DFE700003401002079
:103C300070B513480468FCF777FA05462046FDF78F
:103C400084FD2046FFF71CFE042084F8340004F1B4
:103C50004C0000F065FA2046FFF78AFD012803D1E9
:103C60002046FFF721FD04E004F114010548FFF7A9
:103C70009CFBFFF78FFD2846FCF75AFA70BD000049
:103C80002C010020340100200FE0002408E0074848
:103C900050F8240018B1054951F824008047641CED
:103CA000042CF4D300F004F800BFEEE7AC1B0020B6
:103CB00070B528E0FCF738FA054600BF13480168E4
:103CC000814201D0012100E0002119B92846FCF70A
:103CD0002FFA19E00D480068A0F1140404F1140053
:103CE000D0E900215160D0E900121160406000600D
:103CF00000BFA06AFFF7E8F92046FFF7B7FC2846A7
:103D0000FCF716FA00BFD5E700BF70BD34010020F4
:103D10001FB520201F21C200074BCDE90032CDE99D
:103D200002100023054A06A1074800F00FF80648D4
:103D300000F082F81FBD0000AC1A0020893C00088A
:103D40007469646C650000002C1A00202DE9FF5F87
:103D500005460C4616461F46DDE910ABDDE90E8927
:103D6000224601212846FFF7CDFC3B46324621463C
:103D700028468DE8000FFDF76BFC04B0BDE8F09F0E
:103D800070B50446204600F0DDF80546284600F0F0
:103D900031F870BD70B5044694F8340000F00F009F
:103DA000022802D04FF0FF3070BDFCF7BDF9054688
:103DB00004F11400FFF727FB04F14C0000F05CFA5B
:103DC0002846FCF7B5F92046FFF732FD00BF05484D
:103DD000006818B1204603490968884700BF0020E1
:103DE000E2E700004401002001480068704700003D
:103DF0002C01002031B5FCF797F905460D48046801
:103E0000204600F02FF86A46002104F14C0000F033
:103E10003BF904F14C0000F0AFF92846FCF788F9B3
:103E2000FFF7B8FC206B801C08B90020206300203D
:103E300038BD00002C01002010B504463434A078B1
:103E400060706178012088406060022004F83409C5
:103E50002046FFF79FFFFFF7C7FF08B1FFF79AFC67
:103E6000002010BD70B5044694F8340000F00F0037
:103E7000012802D04FF0FF3070BDFCF755F9054620
:103E80002046FFF7FDFC94F8340020F00F0040F0CE
:103E9000020084F8340004F14C0000F0EDF92846EB
:103EA000FCF746F900BF0548006818B120460349F1
:103EB0000968884700BF0020DEE7000040010020BD
:103EC00070B5044625466FF00100286305F1140023
:103ED000FFF799FA2846FFF7ABFCFFF75BFC70BDD4
:103EE00070B5FCF721F905461448046894F83400CD
:103EF00000F00F0001281CD1D4E90510814218D030
:103F000004F11400FFF77FFA94F835200C4B03EB13
:103F1000C20004F114014268116042684A604160C5
:103F2000086000BF2846FCF703F9FFF733FC0020C8
:103F300070BD2846FCF7FCF80020F9E72C010020B2
:103F4000DC1B00200146002902DA4FF0FF3014E0AC
:103F50004FF47A7291FBF2F24FF47A7302FB03F0A2
:103F60001A4691FBF2F302FB13124FF47A735A4391
:103F700002F2E73292FBF3F2104470470148006806
:103F8000704700008000002010B50A480068401CFF
:103F900008490860FFF728FF0446A06C401EA06493
:103FA000A06C18B9606CA064FFF79AFF00F004F8E9
:103FB00010BD0000800000207CB56846FFF7EBF9DB
:103FC000FFF7DCFF0546FCF7AFF806464CE02B4850
:103FD0000068A0F11404A06A281A6FF0004188421A
:103FE00040D200BF2648006818B12046244909681D
:103FF000884700BF2046FDF79AFB607A00F0020078
:1040000018B9607A20F00100607204F1140168466A
:10401000FFF7D2F9D4E907108847FFF7AFFF05464D
:1040200000BF1848006818B120461649096888473B
:1040300000BF6846FFF7D6F900B115E004F114009F
:10404000FFF7EAF9607A00F0020060B1607A00F0F0
:10405000010040B1607A20F001006072204600F05B
:104060008BF800E005E000BF0448FFF7BBF900282B
:10407000ADD000BF3046FCF75BF87CBD4C010020A2
:1040800054010020580100202DE9F04104460E465D
:104090001546FCF749F80746052E1ED2DFE806F064
:1040A0000603090E1300606A286017E02868606242
:1040B00014E0607A20F0020060720FE0607A40F055
:1040C000020060720AE0607A00F0010010B1012085
:1040D000286001E00020286000E000BF00BF3846F3
:1040E000FCF726F80020BDE8F0812DE9F8430446EE
:1040F0000E4617469846DDF8209021460A20FFF725
:104100007FFA054615B90020BDE8F88343463A46D4
:1041100031462846CDF80090FDF7E8FA2846F3E747
:1041200070B50446FCF700F805462046FDF7FFFA97
:10413000607A20F0010060722846FBF7F9FF204604
:10414000FFF7B2FA002070BD2DE9F84307460C4690
:1041500015461E46DDE9088922460A213846FFF742
:10416000D1FA4346324629463846CDF80090FDF74D
:10417000BDFABDE8F88300002DE9F8430546FBF7DA
:10418000D3FF80462846FDF7D2FA687A20F0010076
:10419000687200BF3548006818B12846334909687D
:1041A000884700BFFFF7EAFE696A0844A862304EFC
:1041B000009600242AE019E05DF8242011681422FA
:1041C00002EBC402881A826AAB6AD21A00D108E0F4
:1041D000826AAB6AD21A6FF000439A4200D20CE0B6
:1041E00000BF5DF8240000684DF824005DF824004D
:1041F00006EBC40149688842DED100BF2CB15DF8EE
:1042000024000830611C4DF82100641C002CD2D021
:1042100018480068401C174908600846076805F1FF
:1042200014010098FFF7C8F8022412E007F0030019
:1042300060B9C4F1010305F1140202EBC301C4F13A
:1042400001025DF82200FFF7B7F800E003E0BF08C5
:10425000641C012CEAD900BF687A40F00100687242
:104260004046FBF765FF0020BDE8F8831C010020F5
:104270004C0100205C01002070B50446607A00F01B
:10428000010010B94FF0FF3070BD00BF0B4800684F
:1042900018B1204609490968884700BFFBF744FF69
:1042A00005462046FDF743FA607A20F0010060726F
:1042B0002846FBF73DFF0020E6E700002001002034
:1042C0000020704700207047002070470020704792
:1042D00010B5FBF729FFFEF745FFFFF793FBFFF74C
:1042E00043FCFFF703FCFEF77BFDFFF74BFCFFF7FA
:1042F0000FFDFFF721FC002010BD000001461A4809
:1043000000781A4A10701A480068C000194AD2F89A
:10431000042140EA8200174AD2F8082140EA42000C
:10432000134A0C32126810430F4A1070104600787E
:104330000E4A1278904200D199B10B4800780128BA
:104340000BD0022807D0042803D0082807D1012069
:1043500070470220FCE70320FAE70420F8E700207A
:10436000F6E70020F4E700001D0000201E000020FA
:10437000000121420000214270B504464FF6FF754E
:1043800006E0281EA5F1010502D1FDF787FD70BDED
:1043900002210548FCF77DFD0028F2D021460248A5
:1043A000FCF780FD00BFF2E70030014030B5024667
:1043B00000200B78002A01DD0A2A00DD30BD2D2BFC
:1043C00000D1491C08E011F8014B303C00EB80059E
:1043D00004EB4500541EE2B2002AF4D12D2B00D18B
:1043E000404200BFEAE7000010B50246106810B96D
:1043F0000848006810600A20B1FBF0F0054C136813
:104400002468E31A984203D800201060012010BDF0
:104410000020FCE78401002007490968074A91420F
:1044200005D205490968491C034A116002E00021D0
:10443000014A116070470000840100200084D717F2
:1044400010B50446022102480068FEF7AFFD10BD1A
:10445000900100200EB500208DF800008DF80100BD
:104460008DF802008DF805008DF803008DF804002A
:1044700064208DF8060000208DF807000290F5E01A
:104480000120FFF73BFF8DF800000A20FFF778FCC2
:104490009DF8000088B39DF8050001282ED09DF8F6
:1044A00001009DF80010884206D09DF800008DF8AC
:1044B00001000120FDF784F99DF8010004281BD1BB
:1044C0009DF80300012817D09DF80600401EC0B2D9
:1044D0008DF8060000280FDC01208DF805008DF80E
:1044E000030000208DF8020064208DF806000020F3
:1044F0008DF80100FDF764F99AE0FFE79DF80000F0
:1045000010B900208DF805009DF8030001282BD07C
:104510009DF80100012811D19DF80200401CC0B295
:104520008DF802009DF802005149097890FBF1F2E4
:1045300001FB1200C0B28DF8020011E09DF80100ED
:1045400002280DD19DF80200002803DC48480078BD
:104550008DF802009DF80200401EC0B28DF80200E6
:1045600064208DF806005EE09DF8040001283FD02D
:104570009DF80100012811D19DF80200401CC0B235
:104580008DF802009DF802003A49097890FBF1F29B
:1045900001FB1200C0B28DF8020044E09DF801005A
:1045A00002280ED19DF80200002803DC3148007873
:1045B0008DF802009DF80200401EC0B28DF8020086
:1045C00031E09DF8010003280AD100208DF8030096
:1045D0008DF80200012128480068FEF7E7FC22E080
:1045E0009DF8010004281ED101208DF804001AE076
:1045F0009DF80100012805D19DF802000121FDF779
:10460000E9FD10E09DF80100022805D19DF80200A7
:104610000021FDF7DFFD06E09DF80100032802D12F
:1046200000208DF8040000208DF80100FDF7C8F887
:104630009DF8030010B99DF8040068B14FF4C871EB
:1046400002A8FFF7D1FE38B19DF8070008B9012094
:1046500000E000208DF807009DF807309DF8042049
:104660009DF803109DF80200FEF730F808E70000FF
:104670004D0000204E0000209001002010B586B0B3
:104680000446012144F20400FCF73CFB4FF40070A7
:10469000ADF8140003208DF8160018208DF81700CF
:1046A00005A91F48FCF7E7F84FF48060ADF8140047
:1046B00028208DF8170005A91948FCF7DCF80194AB
:1046C0000020ADF80800ADF80A00ADF80C00ADF818
:1046D00010000C20ADF80E0001A91248FCF710FEE6
:1046E0004FF4C060FCF7F4FA25208DF8000000209C
:1046F0008DF8010001208DF802008DF80300684656
:10470000FCF7AEFA012240F225510648FCF7D3FD32
:1047100001210448FCF78CFDFDF75AFB06B010BDE3
:10472000000801400038014010B5374800880028D3
:1047300069DD3648007836490870344801780078D9
:10474000401C324A10703348405C50282ED110462D
:1047500001780078401C10702E48405C452825D117
:10476000104601780078401C10702A48405C4428AC
:104770001CD1104601780078401C10702548405C20
:10478000412813D1104601780078401C1070214850
:10479000405C54280AD1104601780078401C107003
:1047A0001C48405C412801D100F038F816480088C8
:1047B00018B31648007816490978884209DC14486D
:1047C0000078C0F5807011490978084412490880C2
:1047D00006E00E4800780E490978401A0E49088014
:1047E0000D48008808490988884207DC0648008887
:1047F00009490988401A0449088004E002480088F1
:10480000001A0149088010BD6200002060000020ED
:104810006C0000202C0300206E00002070B50024E6
:1048200015E03A483A490978425C2046611CCCB20E
:1048300038490A5436480078FF2805DA34480078A9
:10484000401C3349087002E00020314908702F48AD
:104850002F490978405C0A28E3D100250EE02C4856
:1048600001780078401C2A4A10702848425C204693
:10487000611CCCB227490A54681CC5B2052DEEDB79
:10488000201F2449085C0106E01E224A105C41EA10
:104890000041A01E105C41EA0020611E515C0843EB
:1048A0001D490860201F81B21046FDF78FF81B4993
:1048B00008600846006818490968884200D070BD41
:1048C0000024144801190420FFF770FD14490880E2
:1048D000641D104801190420FFF768FD1049488045
:1048E000641D0C4801190420FFF760FD0C49888005
:1048F000E41C084801190420FFF758FD00B20849DC
:10490000C88001200749087000BFD8E72C030020A9
:1049100060000020AC02002064000020680000203D
:10492000740000207C00002070B504460D46294626
:104930002046FCF756FD00BF80212046FCF784FC92
:104940000028F9D070BD000038B5002401201B49B3
:104950000B191B490090087800220221FEF756F936
:10496000A41C20222146641C1448425400201349F0
:104970000B1913490090487800220221FEF746F9EE
:10498000A41C20222146641C0C48425400200B49E0
:104990000B190B490090887800220221FEF736F9A6
:1049A000A41C0A222146641C0448425400200349E6
:1049B0000855044800F008F838BD00002C04002019
:1049C000700000200038014070B505460C4604E038
:1049D00014F8011B2846FFF7A7FF20780028F7D11D
:1049E00000BF40212846FCF72FFC0028F9D070BDFD
:1049F0001CB519E001A84FF0FF33062203210090F7
:104A00000A480068FEF744FA04466CB9019800F0C1
:104A1000010010B1FFF798FF06E0019800F00200D6
:104A2000022801D1FFF780FEE4E70000900100209A
:104A3000E9B239A9709FB9960B8E4F86B07E9477F4
:104A4000F370886A9764E35EA0599C54DA4F5C4B1C
:104A500021472743583FCA3B683844354B32712FB2
:104A6000D02C442AE427A62590238D21AC1FE51DD8
:104A7000381CA21A2219B81700000000000000001C
:104A800000000000000000000000000808080808FE
:104A9000080800001818000000486C2412000000EC
:104AA00000000000000000000000002424247F1209
:104AB00012127F12121200000000081C2A2A0A0C8F
:104AC0001828282A2A1C0808000000222515151578
:104AD0002A585454542200000000000C1212120AEA
:104AE00076252911916E00000006060403000000DF
:104AF000000000000000000000402010100808081E
:104B000008080810102040000002040808101010C7
:104B100010101008080402000000000008086B1CB8
:104B20001C6B0808000000000000000008080808CE
:104B30007F080808080000000000000000000000D6
:104B40000000000006060403000000000000000052
:104B5000FE00000000000000000000000000000057
:104B600000000000060600000000804040202010E9
:104B70001008080404020200000000182442424207
:104B80004242424224180000000000080E080808B3
:104B900008080808083E00000000003C424242208D
:104BA00020100804427E00000000003C4242201811
:104BB00020404042221C0000000000203028242415
:104BC00022227E20207800000000007E0202021ACD
:104BD00026404042221C0000000000382402021A35
:104BE00026424242241800000000007E22221010BB
:104BF00008080808080800000000003C424242245F
:104C000018244242423C0000000000182442424264
:104C100064584040241C00000000000000001818E8
:104C2000000000001818000000000000000000084C
:104C300000000000000808040000004020100804E4
:104C400002040810204000000000000000007F0067
:104C500000007F0000000000000000020408102097
:104C600040201008040200000000003C4242464080
:104C700020101000181800000000001C225A555582
:104C800055552D42221C000000000008081814147D
:104C9000243C224242E700000000001F2222221E84
:104CA00022424242221F00000000007C42420101D9
:104CB00001010142221C00000000001F224242426A
:104CC00042424242221F00000000003F4212121ED8
:104CD00012120242423F00000000003F4212121E28
:104CE00012120202020700000000003C2222010111
:104CF00001712122221C0000000000E742424242D2
:104D00007E42424242E700000000003E08080808D8
:104D100008080808083E00000000007C1010101071
:104D2000101010101010110F0000007722120A0E40
:104D30000A1212222277000000000007020202027B
:104D400002020202427F000000000077363636364B
:104D50002A2A2A2A2A6B0000000000E346464A4A13
:104D600052525262624700000000001C2241414141
:104D700041414141221C00000000003F42424242AA
:104D80003E020202020700000000001C22414141D5
:104D900041414D53321C60000000003F4242423E00
:104DA0001212222242C700000000007C424202048C
:104DB00018204042423E00000000007F49080808D9
:104DC00008080808081C0000000000E742424242B0
:104DD00042424242423C0000000000E7424222249C
:104DE00024141418080800000000006B49494949C0
:104DF0005555362222220000000000E742242418E4
:104E00001818242442E7000000000077222214141E
:104E100008080808081C00000000007E212010106F
:104E200008040442423F0000007808080808080807
:104E300008080808080878000000020204040808AE
:104E40000810102020204040001E101010101010DC
:104E50001010101010101E00003844000000000058
:104E60000000000000000000000000000000000042
:104E700000000000000000FF000608000000000025
:104E80000000000000000000000000000000003CE6
:104E90004278444242FC0000000000030202021A71
:104EA00026424242261A000000000000000000389E
:104EB0004402020244380000000000604040407894
:104EC0004442424264D80000000000000000003C60
:104ED000427E0202423C0000000000F08808087E8A
:104EE00008080808083E0000000000000000007CE0
:104EF00022221C023C42423C000000030202023A11
:104F00004642424242E700000000000C0C00000E46
:104F100008080808083E0000000000303000003893
:104F2000202020202020221E000000030202027206
:104F3000120A1612227700000000000E0808080866
:104F400008080808083E0000000000000000007F7C
:104F50009292929292B70000000000000000003B85
:104F60004642424242E70000000000000000003CD0
:104F700042424242423C0000000000000000001B90
:104F800026424242221E0207000000000000007874
:104F900044424242447840E00000000000000077B4
:104FA0004C040404041F0000000000000000007C0A
:104FB00042023C40423E0000000000000008083E63
:104FC0000808080808300000000000000000006326
:104FD0004242424262DC000000000000000000E7A4
:104FE000422424140808000000000000000000EB28
:104FF00049495555222200000000000000000076BB
:1050000024181818246E000000000000000000E7BB
:105010004224241418080807000000000000007E45
:1050200022100808447E000000C02020202020100C
:10503000202020202020C000101010101010101070
:1050400010101010101010100006080808080810A2
:1050500008080808080806000C32C200000000001A
:105060000000000000000000000000000000000040
:105070000000000000000000000000000000000030
:105080000000000000000000000000000000000020
:105090000000000000000000000000000000000010
:1050A0000000000000000000000000000000000000
:1050B0000000C001C001C001C001C001C001C001A9
:1050C0008000800080008000800080008000000060
:1050D0000000000000008001C003C0038001000048
:1050E0000000000000000000000000000000E01CC4
:1050F000E01CF01E700E3807180308018400000041
:10510000000000000000000000000000000000009F
:10511000000000000000000000000000000000008F
:10512000000000000000000000000000000000007F
:105130000000000020102010201020102010FE7F02
:10514000FE7F10081008100810081008100810083A
:10515000FE7FFE7F08040804080408040804000019
:10516000000000000000000000000000000000003F
:1051700000010001C00760191031183118391839C1
:1051800038017001E001C0038007000F001D0039E5
:1051900000311C311C310C310C11180DE0070001DD
:1051A00000010001000000000000000000000000FD
:1051B000000000001C1036186308630C63046304CD
:1051C000630263026301361D9C3780228063406363
:1051D000406320632063306310221836081C0000EF
:1051E00000000000000000000000000000000000BF
:1051F00000000000F00098018C018C018C018C01F2
:105200008C00CC007800183E1C0836083208630475
:105210006304C304C303834306438E26781C000043
:1052200000000000000000000000000000001C0062
:105230003C003C003000300010000C000600000074
:10524000000000000000000000000000000000005E
:10525000000000000000000000000000000000004E
:1052600000000000000000000000000000000040FE
:10527000002000100008000C0004000600030003DA
:105280000003800180018001800180018001800194
:10529000800100030003000300060006000C000864
:1052A000001000200040000000000000000002008C
:1052B000040008001000300020006000C000C000A2
:1052C000C000800180018001800180018001800197
:1052D0008001C000C000C00060006000300010000D
:1052E00008000400020000000000000000000000B0
:1052F00000000000000000000001800380030001A6
:105300001C713C79783DC0070001C007783D3C79AD
:105310001C71000180038003800100000000000078
:10532000000000000000000000000000000000007D
:10533000000000000000000000000001000100016A
:105340000001000100010001FC7F000100010001DB
:105350000001000100010001000000000000000049
:10536000000000000000000000000000000000003D
:10537000000000000000000000000000000000002D
:10538000000000000000000000000000000000001D
:1053900000000000000000001C003C003C00300049
:1053A000300010000C0006000000000000000000AB
:1053B00000000000000000000000000000000000ED
:1053C0000000000000000000FE7F00000000000060
:1053D00000000000000000000000000000000000CD
:1053E00000000000000000000000000000000000BD
:1053F00000000000000000000000000000000000AD
:10540000000000000000000000000000000000009C
:1054100000000000000018003C003C0018000000E4
:10542000000000000000000000000000000000403C
:10543000006000200030001000180008000C00047C
:10544000000600020003000180018000C00040004F
:105450006000200030001000180008000C0004005C
:105460000600020000000000000000000000000034
:1054700000000000C007600C3018183018301820E9
:105480000C600C600C600C600C600C600C600C60BC
:105490000C601820183018303018600CC00700005D
:1054A00000000000000000000000000000000000FC
:1054B0000000000000018001F801800180018001EE
:1054C00080018001800180018001800180018001D4
:1054D00080018001800180018001C003F81F00006D
:1054E00000000000000000000000000000000000BC
:1054F00000000000E007101C0818043004300C30D5
:105500000C30003000180008000400020001800088
:1055100040002020102008200430FC1FFC1F000049
:10552000000000000000000000000000000000007B
:1055300000000000E003180E0C0C0C180C180C18DE
:105540000018000C0006C003000E00180010003008
:1055500000300C300C300C100C18180CE00300005C
:10556000000000000000000000000000000000003B
:1055700000000000000C000E000E000F800E800ED8
:10558000400E600E200E100E100E080E040E040EBB
:10559000FE7F000E000E000E000E000E000EC07FFB
:1055A00000000000000000000000000000000000FB
:1055B00000000000F03FF03F100010001000080055
:1055C0000800C807280C18180810003000300030F8
:1055D00000300C300C3004180418080CF0030000E4
:1055E00000000000000000000000000000000000BB
:1055F00000000000800FC01020301030180018008C
:1056000008000C008C0F6C183C301C600C600C60A7
:105610000C600C601860182030306018C007000063
:10562000000000000000000000000000000000007A
:1056300000000000F83FF83F1C100C0804080404A8
:10564000000400020002000100010001800080004F
:105650008000C000C000C000C000C000C00000004A
:10566000000000000000000000000000000000003A
:1056700000000000E007300C18180C300C300C3023
:105680001C3038187008E007B007180E0C1C0638DC
:1056900006300630063006300C18180CE003000007
:1056A00000000000000000000000000000000000FA
:1056B00000000000E00318040C080C180610063067
:1056C00006300630063006380C3C1836F031003013
:1056D0000018001800180C0C0C060C03F001000058
:1056E00000000000000000000000000000000000BA
:1056F00000000000000000000000000000000000AA
:1057000000008001C003C003800100000000000011
:105710000000000000008001C003C0038001000001
:105720000000000000000000000000000000000079
:105730000000000000000000000000000000000069
:105740000000C000C00000000000000000000000D9
:1057500000000000000000000000C000C000800049
:105760008000400040000000000000000000000039
:105770000000002000100008000400060003800163
:10578000C0006000300018000C00180030006000FD
:10579000C000800100030006000400080010002083
:1057A00000000000000000000000000000000000F9
:1057B00000000000000000000000000000000000E9
:1057C0000000FE7F00000000000000000000FE7FDF
:1057D00000000000000000000000000000000000C9
:1057E00000000000000000000000000000000000B9
:1057F000000004000800100020006000C0008001CC
:1058000000030006000C001800300018000C000611
:1058100000038001C00060002000100008000400A8
:105820000000000000000000000000000000000078
:105830000000C0073018083008600C601C601C6055
:105840001C600030001C0006000180008000800009
:105850008000000000008001C003C0038001000040
:105860000000000000000000000000000000000038
:1058700000000000C0076018103018200C2F8C4D5D
:10588000864CC64CC64C664C664466446626662604
:105890006615CC1C0C40082018303018C0070000DA
:1058A00000000000000000000000000000000000F8
:1058B00000000001C001C001C001400160032003DD
:1058C000200320033006100610061006F80F080CFF
:1058D000080C080C0C0C0418041806181F7C000097
:1058E00000000000000000000000000000000000B8
:1058F00000000000FE07181C183818301830183047
:1059000018301818180CF8071818183018201860D4
:10591000186018601860186018301818FE0F000022
:105920000000000000000000000000000000000077
:1059300000000000C0276038103018200C400C40D8
:105940000400060006000600060006000600060029
:1059500006000C400C400C2018303018C007000026
:105960000000000000000000000000000000000037
:1059700000000000FE03180E1818183018301830F8
:105980001860186018601860186018601860186057
:1059900018601830183018101818180EFE03000080
:1059A00000000000000000000000000000000000F7
:1059B00000000000FE3F1830182018601840180042
:1059C00018081808180CF80F180C180818081800F0
:1059D000180018001840184018201830FE3F00002A
:1059E00000000000000000000000000000000000B7
:1059F00000000000FE7F1870184018C018801800C2
:105A0000181018101818F81F181818101810180067
:105A10001800180018001800180018007E00000078
:105A20000000000000000000000000000000000076
:105A300000000000C013701C101018100C200C2067
:105A400004000600060006000600060006FC0630FC
:105A500006300C300C30183018303008C007000009
:105A60000000000000000000000000000000000036
:105A7000000000003F7E0C180C180C180C180C18B5
:105A80000C180C180C180C18FC1F0C180C180C18FF
:105A90000C180C180C180C180C180C183F7E000071
:105AA00000000000000000000000000000000000F6
:105AB00000000000F81F800180018001800180014A
:105AC00080018001800180018001800180018001CE
:105AD000800180018001800180018001F81F0000A9
